:100000000C947B000C94A3000C94A3000C94A3000C
:100010000C94A3000C94A3000C94A3000C94A300D4
:100020000C94A3000C94A3000C94A3000C94A300C4
:100030000C94A3000C94A3000C94A3000C94A300B4
:100040000C94BB0E0C94A3000C94740D0C94B00D86
:100050000C94A3000C94A3000C94A3000C94A30094
:100060000C94E6090C94A300084AD73B3BCE016EE2
:1000700084BCBFFDC12F3D6C74319ABD56833DDAFF
:100080003D00C77F11BED9E4BB4C3E916BAAAABE0E
:10009000000000803F000000070002010000030490
:1000A00006000000000000000001020408102040CB
:1000B0008001020408102001020408102004040436
:1000C0000404040404020202020202030303030301
:1000D0000300000000230026002900000000002586
:1000E0000028002B0000000000240027002A000048
:1000F000D8039F066B0E11241FBECFEFD8E0DEBFE2
:10010000CDBF12E0A0E0B1E0E8EEF6E202C005905B
:100110000D92AA35B107D9F714E0AAE5B2E001C003
:100120001D92A131B107E1F710E0C6EFD0E004C0A5
:100130002297FE010E946E13C03FD107C9F70E94AB
:10014000CB0C0C9472130C94000040E855E260E074
:1001500070E081E693E00E94EB0D6CE071E081E6D7
:1001600093E00E946A0B089561E08DE00E94D60F33
:1001700020E042E060E18CE892E00E942B0868E118
:1001800071E08CE892E00E94490B68EE73E080E039
:1001900090E00E94410F089581EA92E00E94620679
:1001A00040E855E260E070E081E693E00E94EB0DEC
:1001B00065E971E081E693E00E946A0B85E892E0D0
:1001C0000E94F7068DE792E00E94330461EB71E034
:1001D00081E693E00E946A0B85E892E00E94BA06ED
:1001E000882319F064E271E002C062E471E081E604
:1001F00093E00E946A0B8DE792E00E94F703882348
:1002000019F06CE571E002C06BE771E081E693E004
:100210000E946A0B61E08DE00E94D60F60E087E0EB
:100220000E94D60F63E085E892E00E9412076FEF0C
:1002300085E892E00E940A0720E040E060E085E85F
:1002400092E00E94C206089506C06AE070E080E075
:1002500090E00E94410F87E00E944210892BA9F391
:10026000089540E060E08CE892E00E94FE076FECA9
:1002700071E08CE892E00E94490B41E060E08CE87C
:1002800092E00E94FE076CED71E08CE892E00E9423
:10029000490B69EE71E081E693E00E946A0B0E94CF
:1002A000240127E732E049E752E06BE772E085E896
:1002B00092E00E941D076AE070E080E090E00E94FA
:1002C000410F27E732E049E752E06BE772E085E84B
:1002D00092E00E941D0780917B0290917C02919593
:1002E00081959109909365028093640280917902CF
:1002F00090917A02919581959109909363028093F0
:100300006202809100019091010120917702309169
:100310007802821B930B909361028093600262E1EA
:1003200072E081E693E00E94490B60917B0270913C
:100330007C024AE050E081E693E00E94120C66E104
:1003400072E081E693E00E94490B6091790270911E
:100350007A024AE050E081E693E00E94120C66E1E6
:1003600072E081E693E00E94490B60917702709100
:1003700078024AE050E081E693E00E94120C68E1C6
:1003800072E081E693E00E946A0B27E732E049E7DA
:1003900052E06BE772E08DE792E00E9446046AE06B
:1003A00070E080E090E00E94410F27E732E049E7EB
:1003B00052E06BE772E08DE792E00E9446046AE04B
:1003C00070E080E090E00E94410F27E732E049E7CB
:1003D00052E06BE772E08DE792E00E9446046AE02B
:1003E00070E080E090E00E94410F27E732E049E7AB
:1003F00052E06BE772E08DE792E00E94460482E0F3
:1004000090E020917B0230917C02821B930B9093B1
:100410005F0280935E0281ED90E02091790230913D
:100420007A02821B930B90935D0280935C0288EEAC
:1004300091E02091770230917802821B930B909388
:100440005B0280935A0269E172E081E693E00E94C8
:10045000490B60917B0270917C024AE050E081E69A
:1004600093E00E94120C66E172E081E693E00E9444
:10047000490B6091790270917A024AE050E081E67E
:1004800093E00E94120C66E172E081E693E00E9424
:10049000490B60917702709178024AE050E081E662
:1004A00093E00E94120C68E172E081E693E00E9402
:1004B0006A0B68E172E081E693E00E946A0B62E1F8
:1004C00072E081E693E00E94490B609164027091B2
:1004D00065024AE050E081E693E00E94120C66E17A
:1004E00072E081E693E00E94490B60916202709194
:1004F00063024AE050E081E693E00E94120C66E15C
:1005000072E081E693E00E94490B60916002709175
:1005100061024AE050E081E693E00E94120C68E13B
:1005200072E081E693E00E946A0B69E172E081E685
:1005300093E00E94490B60915E0270915F024AE075
:1005400050E081E693E00E94120C66E172E081E6E1
:1005500093E00E94490B60915C0270915D024AE059
:1005600050E081E693E00E94120C66E172E081E6C1
:1005700093E00E94490B60915A0270915B024AE03D
:1005800050E081E693E00E94120C68E172E081E69F
:1005900093E00E946A0B6DE172E081E693E00E94B5
:1005A0006A0B68EE73E080E090E00E94410F0E94C9
:1005B00024010895CF92DF92EF92FF92CF93DF93C1
:1005C00000D000D0CDB7DEB727E732E049E752E0F0
:1005D0006BE772E08DE792E00E94460460917B0237
:1005E00070917C0280915E0290915F02680F791F8A
:1005F000882777FD8095982F0E94D1116B017C018F
:1006000060937302709374028093750290937602E4
:100610006091790270917A0280915C0290915D0202
:10062000680F791F882777FD8095982F0E94D11138
:100630009B01AC0160936F02709370028093710212
:1006400090937202609177027091780280915A02C1
:1006500090915B02680F791F882777FD8095982F0E
:1006600029833A834B835C830E94D11160936B0290
:1006700070936C0280936D0290936E0229813A818F
:100680004B815C81C701B6010E94DF1021EE3EE282
:1006900045E652E40E94AD126093670270936802CF
:1006A0008093690290936A0222E030E0B701A601CC
:1006B00081E693E00E94B40C66E172E081E693E08B
:1006C0000E94490B40916F0250917002609171023B
:1006D0007091720222E030E081E693E00E94B40C57
:1006E00066E172E081E693E00E94490B40916B0263
:1006F00050916C0260916D0270916E0222E030E0C8
:1007000081E693E00E94B40C66E172E081E693E03A
:100710000E94490B40916702509168026091690202
:1007200070916A0222E030E081E693E00E94B70C0B
:1007300041E060E08CE892E00E94FE074091670291
:10074000509168026091690270916A0222E030E083
:100750008CE892E00E94B40C62E370E080E090E0EC
:100760000E94410F6091660281E0682760936602F3
:100770008DE00E940E100F900F900F900F90DF9160
:10078000CF91FF90EF90DF90CF9008950E94A50049
:100790000E94B4000E94CC000E94310108950E9482
:1007A000DA0262E370E080E090E00E94410F089579
:1007B000CF92EF920F9382E0C82E93E0E92E04E0EF
:1007C00025E04BE06CE08CE892E00E94E10885E8CF
:1007D00092E00E94A4068DE792E00E94F3030F913D
:1007E000EF90CF9008952EE1FC01208308950F93A0
:1007F0001F93CF93DF93EC0100910201109103014D
:100800009C012F5F3F4F43E06AE088810E947E0495
:10081000833051F48981883439F48A81843321F416
:1008200081E09B81933309F080E0DF91CF911F91AC
:100830000F910895462F4295440F407E61E0FC01E0
:1008400080810E94500508951F93CF93DF93EC01A0
:10085000162F4F8162E088810E9450051F83DF912F
:10086000CF911F910895CF93DF93EC0140E760E0B3
:1008700088810E94500561E0CE010E941A0461E067
:10088000CE010E942404DF91CF910895A0E0B0E052
:10089000ECE4F4E00C943D13EC017B015A01690196
:1008A00000910201109103019C012F5F3F4F46E030
:1008B00063E088810E947E048F81813029F441E0C9
:1008C00062E088810E945005998180E02A81822B14
:1008D000F701918380839D8180E02E81822BF50139
:1008E000918380839B8180E02C81822BF601918310
:1008F0008083CDB7DEB7EAE00C945913A8E0B0E0EE
:10090000E4E8F4E00C943513382E6A83942E3C838B
:100910002B830E94050F6B017C01212C812C892DDA
:1009200090E09E838D832801612C712C41C0632D42
:1009300081EA92E00E947E066A8181EA92E00E944A
:10094000210681EA92E00E949B06632D81EA92E0F3
:100950000E947E064D815E81421951094132510546
:1009600014F040E250E0632D81EA92E00E947A06A2
:1009700018861F82AB80BC80A80CB11C87FCBA947F
:100980009F81980D998381EA92E00E94CB05892B83
:1009900071F101151105B9F10E94050F6C197D095E
:1009A0008E099F09641575058605970560F11FC0BE
:1009B000291408F4BCCF01151105A1F10E94050FFF
:1009C0006C197D098E099F0920E030E060177107DE
:1009D0008207930738F1282D332727FD3095892D7D
:1009E00090E028173907F4F488248A941BC081EA20
:1009F00092E00E949B06892DE0E2E91508F480E26E
:100A0000280E8980D5CF81EA92E00E94D405EF813B
:100A1000F885EA0DFB1D80838F8198850196988764
:100A20008F83AECF882D2896E2E10C9451130F935B
:100A30001F9389019A0141E00E947E041F910F914A
:100A40000895A1E0B0E0E7E2F5E00C944113F62E42
:100A5000042F122F682F81EA92E039830E947E06CC
:100A60006F2D81EA92E00E942106E12E3981F32E5A
:100A700007C0F70161917F0181EA92E00E9421069F
:100A80008E2D811B8017A8F381EA92E00E949B06BD
:100A900091E0811190E0892F2196E6E00C945D139E
:100AA000A1E0B0E0E6E5F5E00C94451349839E0132
:100AB0002F5F3F4F41E00E9421052196E2E00C9418
:100AC0006113A1E0B0E0E7E6F5E00C944013182FC5
:100AD000F62ED42EE22E2091020130910301AE01B8
:100AE0004F5F5F4F0E941705882321F14D2D50E085
:100AF0004E1951094F5F5F4FE1E0F0E00E2C02C04C
:100B0000EE0FFF1F0A94E2F73197042E01C0EE0F9B
:100B10000A94EAF701C0000F4A95EAF74E2F409574
:100B2000898148230E23402B49836F2D812F0E94FA
:100B3000500501C080E02196E7E00C945C13A1E031
:100B4000B0E0E5EAF5E00C944113182F062FF42EDF
:100B5000E22E2091020130910301AE014F5F5F4F01
:100B60000E941705898121E030E00F2C01C0220F7F
:100B70000A94EAF7EE2019F0482F422B03C0422FC7
:100B8000409548234983602F812F0E94500521966C
:100B9000E6E00C945D132091D10230E08091D20206
:100BA000281B3109C90108958091D2029091D10288
:100BB000891750F4E82FF0E0ED52FD4F208130E02E
:100BC0008F5F8093D20202C02FEF3FEFC9010895DB
:100BD000E091D2028091D102E81730F4F0E0ED52BA
:100BE000FD4F208130E002C02FEF3FEFC901089593
:100BF0000895A0E0B0E0EFEFF5E00C943F137C0126
:100C0000CB018A012091AD02222391F0EB016B010F
:100C1000C40ED51E09C06991D701ED91FC910190D8
:100C2000F081E02DC7010995CC15DD05A1F703C0C2
:100C3000642F0E94BD09C801CDB7DEB7E8E00C946F
:100C40005B13A1E0B0E0E7E2F6E00C9445136983A2
:100C50002091AD022223D1F02091AE02203240F04B
:100C600021E030E0FC013383228320E030E015C036
:100C70008091AF02E82FF0E0E055FD4F998190831D
:100C80008F5F8093AF028093AE0205C061E0CE011A
:100C900001960E94BD0921E030E0C9012196E2E001
:100CA0000C946113FC011382128248EE53E060E061
:100CB00070E0448355836683778386E392E0918373
:100CC000808308951092D2021092D1021092AF0246
:100CD0001092AE020E9407090895862F413208F053
:100CE00040E263ED72E00E9425091092D2028093E7
:100CF000D102089521E00E946D06089581E080935D
:100D0000AD026093D0021092AF021092AE0208952D
:100D10000F93062F21E04091AE0260EB72E08091CC
:100D2000D0020E946A091092AF021092AE02109295
:100D3000AD020F91089561E00E948806089581EA4E
:100D400092E00E945206089523E5FC012083089555
:100D5000CF93DF93EC012091020130910301AC01AC
:100D60004F5F5F4F60E088810E9417058981DF91A6
:100D7000CF9108950E94A80691E0853E09F090E089
:100D8000892F0895EF92FF921F93CF93DF931F92C5
:100D9000CDB7DEB77C01142F462F6EE1FC018081B8
:100DA00029830E945005412F6FE1F70180810E9445
:100DB00050052981422F60E2F70180810E94500591
:100DC0000F90DF91CF911F91FF90EF900895262F04
:100DD00044E06DE2FC0180810E949F050895262F6A
:100DE00043E06DE2FC0180810E949F050895CF934E
:100DF000DF93EC0140E06DE288810E94500561E0E4
:100E0000CE010E94E70661E0CE010E94EF06DF916D
:100E1000CF910895262F43E061E3FC0180810E9479
:100E20009F0508950F93062F22E041E061E3FC0146
:100E300080810E9461050F910895A0E0B0E0E3E297
:100E4000F7E00C943D13EC017B015A01690100911C
:100E50000201109103019C012F5F3F4F46E062E3C6
:100E600088810E947E049A8180E02981822BF7018B
:100E7000918380839C8180E02B81822BF50191837B
:100E800080839E8180E02D81822BF6019183808377
:100E9000CDB7DEB7EAE00C945913CF93DF93EC01A2
:100EA00060E08E810E940E1081E090E00E94670F4A
:100EB00061E08E810E940E1081E090E00E94670F39
:100EC00060E08E810E940E1084E690E00E94670F21
:100ED000DF91CF910895A0E0B0E0E1E7F7E00C9456
:100EE0003F137C01C0E0D0E0C62ED12C87010C0F4F
:100EF0001D1F61E0F80187810E94D60FB6010C2EFC
:100F000002C0759567950A94E2F761707727F8013A
:100F100087810E940E102196C430D10539F7C70190
:100F20000E944D07CDB7DEB7E8E00C945B13A0E05C
:100F3000B0E0EDE9F7E00C943F137C01C0E0D0E0B5
:100F4000C62ED12C87010C0F1D1F61E0F80187818F
:100F50000E94D60FB6010C2E02C0759567950A94B3
:100F6000E2F761707727F80187810E940E102196C1
:100F7000C830D10539F7C7010E944D07CDB7DEB79C
:100F8000E8E00C945B131F93CF93DF93EC01162FD3
:100F9000642F8C810E940E108D818F3F19F060E0CC
:100FA0000E940E108F85612F84FF04C0CE010E9425
:100FB00097070DC070E084E0759567958A95E1F715
:100FC000CE010E946B07612FCE010E946B07DF915B
:100FD000CF911F91089541E00E94C30781E090E006
:100FE000089540E00E94C3070895FC016089262F00
:100FF0002460208B6C600E94F1070895A8E0B0E0A7
:10100000E4E0F8E00C94451328E0E4E0F1E0DE01D0
:10101000119601900D922A95E1F7FC012389421760
:1010200010F0422F4150FE013196E40FF11DE40F04
:10103000F11D2081260F2068622F0E94F10728965B
:10104000E2E00C94611361E00E94F10780ED97E00B
:101050000E94670F0895CF93DF93EC01423018F0A0
:101060008F8588608F874B8B1C8A222329F0413023
:1010700019F48F8584608F8780E593EC0E94670F59
:1010800060E08C810E940E1060E08E810E940E1044
:101090008D818F3F19F060E00E940E106F8564FD16
:1010A0001DC063E0CE010E946B0784E991E10E94BC
:1010B000670F63E0CE010E946B0784E991E10E9413
:1010C000670F63E0CE010E946B0786E990E00E9403
:1010D000670F62E0CE010E946B0716C06062CE010E
:1010E0000E94F10784E991E10E94670F6F856062B9
:1010F000CE010E94F10786E990E00E94670F6F859C
:101100006062CE010E94F1076F856062CE010E948D
:10111000F10784E0888BCE010E94F507CE010E9482
:10112000230882E0898B66E0CE010E94F107DF91FF
:10113000CF9108956F927F928F92AF92CF92EF925C
:101140000F931F93CF93DF93CDB7DEB73C01162FDC
:10115000842FF301448325830683E782C086A1861A
:1011600082869D8593879E8594879F85958798899C
:10117000968761E00E94D60FF30185818F3F19F0B9
:1011800061E00E94D60F61E0F30186810E94D60FD4
:10119000112319F0F301178603C080E1F30187875B
:1011A00020E041E060E1C3010E942B08DF91CF9174
:1011B0001F910F91EF90CF90AF908F907F906F9095
:1011C00008958F92AF92CF92EF920F93DC01139616
:1011D0001C921E921297E6E4F2E0ED93FC931F92AC
:1011E0001F921F921F928C2CAE2CC02EE22E042F29
:1011F0002FEF462F61E00E949A080F900F900F90FA
:101200000F900F91EF90CF90AF908F900895109224
:10121000FC0281E08093FA021092F90261E082E11F
:101220000E940E1061E083E10E940E10E9EBF0E0F5
:1012300080818E7F808380818D7F808388E480930E
:10124000B80085E48093BC000895413208F03FC0A7
:101250009091FC029111FCCF91E09093FC022093BD
:10126000FA022FEF2093F3021092F802242F21505C
:101270002093F7029093FB029091FB02880F892B39
:101280008093FB028091F902813041F41092F902BF
:101290008091FB028093BB0085EC01C085EE8093BA
:1012A000BC008091FC028130E1F38091F802841748
:1012B00010F44091F8022DEF32E0FB01D90102C099
:1012C0008D9181938A2F821B8417D0F301C040E057
:1012D000842F08950F93413208F046C09091FC028C
:1012E0009111FCCF92E09093FC020093FA029FEFE1
:1012F0009093F3021092F8024093F702FB016DEF16
:1013000072E0DB0102C091919D939A2F961B941776
:10131000D0F31092FB029091FB02880F892B8093EF
:10132000FB028091F902813041F41092F902809120
:10133000FB028093BB0085EC01C085EE8093BC006E
:10134000222321F08091FC028230E1F38091F302AC
:101350008F3F61F08091F302803251F08091F3026F
:10136000803341F483E007C081E005C080E003C022
:1013700082E001C084E00F910895613298F42091D9
:10138000FC02243089F46093F502FC018DE193E0C6
:10139000DC0102C021912D932A2F281B2617D0F3A0
:1013A00080E0089581E0089582E0089585ED8093BE
:1013B000BC008091BC0084FDFCCF1092FC0208951B
:1013C00085EC8093BC001092FC0208951F920F924E
:1013D0000FB60F9211242F933F934F935F936F9308
:1013E0007F938F939F93AF93BF93EF93FF938091DE
:1013F000B900887F803609F49FC058F5883209F417
:101400005BC090F4803109F452C038F4882309F4A9
:10141000F8C0883009F0F9C04AC0883109F44CC0DE
:10142000803209F0F2C05CC0803409F46BC038F43B
:10143000803309F455C0883309F0E7C054C08035C3
:1014400009F454C0883509F462C0883409F0DDC05D
:10145000DAC0883909F4CBC0A8F4883709F46CC025
:1014600038F4883609F468C0803709F0CEC064C00B
:10147000883809F4BCC0803909F464C0803809F0A8
:10148000C4C060C0803B09F48AC038F4803A09F4D3
:101490006BC0883A09F0B9C082C0803C09F4ABC087
:1014A000883C09F4A8C0883B09F0AFC08DC080918A
:1014B000FB028093BB0012C09091F8028091F7026A
:1014C000981788F58091F802E82FF0E0E350FD4F7F
:1014D00090819093BB008F5F8093F80285EC88C069
:1014E0008093F30290C08093F30256C08091F8027B
:1014F0009091BB00E82FF0E0E350FD4F90838F5FA9
:101500008093F8029091F8028091F7026DC080916B
:10151000F8029091BB00E82FF0E0E350FD4F90837C
:101520008F5F8093F8028091FA0281116CC081E094
:101530008093F90284EA60C083E08093FC021092F9
:10154000F402CCCF8091F402803208F050C0809138
:10155000F4029091BB00E82FF0E0EF5BFC4F90832A
:101560008F5F8093F402BACF8091F402803230F41E
:10157000E091F402F0E0EF5BFC4F10820E94D6098C
:101580006091F402E0913D03F0913E0370E081E44C
:1015900093E009951092F4020E94E00936C084E0BD
:1015A0008093FC021092F6021092F502E0913F0344
:1015B000F091400309958091F502811105C081E009
:1015C0008093F50210921D038091F602E82FF0E05F
:1015D000E35EFC4F90819093BB008F5F8093F60297
:1015E0009091F6028091F502981708F477CF85E87C
:1015F0008093BC000AC085EC8093BC001092FC0272
:1016000004C01092F3020E94D609FF91EF91BF919E
:10161000AF919F918F917F916F915F914F913F918A
:101620002F910F900FBE0F901F901895A0E0B0E083
:10163000ECE1FBE00C943F136C01EB017A01E60E48
:10164000F71E00E010E00BC06991D601ED91FC910E
:101650000190F081E02DC6010995080F191FCE15E4
:10166000DF0591F7C801CDB7DEB7E8E00C945B1356
:10167000DB010D900020E9F7AD0141505109461BF7
:10168000570BDC01ED91FC910280F381E02D09956F
:1016900008950E94380B0895DC01ED91FC910190B2
:1016A000F081E02D099508950F931F93CF93DF9359
:1016B000EC016DE00E944C0B8C016AE0CE010E94AF
:1016C0004C0B9C01200F311FC901DF91CF911F915D
:1016D0000F9108950F931F93CF93DF93EC010E9416
:1016E000380B8C01CE010E94540B9801280F391F32
:1016F000C901DF91CF911F910F9108954F925F9291
:101700006F927F929F92AF92BF92CF92DF92EF92B1
:10171000FF920F931F93CF93DF93CDB7DEB7A197BF
:101720000FB6F894DEBF0FBECDBF5C016A017B012E
:10173000922E19A281E0821710F08AE0982E8E0175
:101740000F5D1F4F492C512C612C712CC701B60124
:10175000A30192010E9413138C2D929E80191124D3
:10176000015011098A3014F4805D01C0895CF801D0
:10177000808369017A01C114D104E104F10431F7D5
:10178000B801C5010E94380BA1960FB6F894DEBFD0
:101790000FBECDBFDF91CF911F910F91FF90EF90C2
:1017A000DF90CF90BF90AF909F907F906F905F90B1
:1017B0004F900895A0E0B0E0E0EEFBE00C943F1302
:1017C000EC016A017B012115310541F4E881F981C1
:1017D0000190F081E02D642F09951DC02A3031055C
:1017E000A9F477FF12C06DE20E944C0B8C014427D4
:1017F0005527BA014C195D096E097F092AE0CE010F
:101800000E947E0B080F191F07C02AE0B701A6012E
:10181000CE010E947E0B8C01C801CDB7DEB7E8E097
:101820000C945B139A01AB01662757FD6095762FE8
:101830000E94DA0B0895A0E0B0E0E1E2FCE00C9435
:101840003A138C014A015B01F22E20E030E0A9013D
:10185000C501B4010E94321187FF0AC06DE2C801C0
:101860000E944C0BEC01B7FAB094B7F8B09402C0E8
:10187000C0E0D0E0E12C60E070E080E09FE307C0D2
:1018800020E030E040E251E40E943611E394EF1092
:10189000F7CF262F372F482F592FC501B4010E94AB
:1018A0006C10762E872E982EA92E0E94A311B62E8C
:1018B000C72ED82EE92E0E94CF119B01AC01672DB7
:1018C000782D892D9A2D0E946B10A62E972E882E8A
:1018D000792E2AE04B2D5C2D6D2D7E2DC8010E94A6
:1018E0007E0BC80FD91FFF20B9F16FEA71E0C80164
:1018F0000E94380BC80FD91F2FC020E030E040E213
:1019000051E46A2D792D882D972D0E94AD12762EE7
:10191000C72ED82EE92E0E949E114B01AA2497FCB7
:10192000A094BA2C2AE030E0B501A401C8010E94BD
:10193000DA0BC80FD91FC501B4010E94D1119B0158
:10194000AC01672D7C2D8D2D9E2D0E946B10A62E37
:10195000972E882E792EFA94F110CFCFCE01CDB7E5
:10196000DEB7EDE00C9456130E941B0C08950F9304
:101970001F93CF93DF93EC010E941B0C8C01CE01CF
:101980000E94540B9801280F391FC901DF91CF9194
:101990001F910F9108950E94710F0E94C603C7EA1C
:1019A000DDE00E94CF032097E1F30E94A70DF9CF5D
:1019B000FC0184859585FC01E05CFF4F208131812D
:1019C000FC01EE5BFF4F80819181281B390B2F7347
:1019D0003327C9010895FC0184859585FC01E05CED
:1019E000FF4F40815181FC01EE5BFF4F208131812F
:1019F0004217530741F00190F081E02DE80FF91FE5
:101A0000208130E002C02FEF3FEFC9010895FC01B3
:101A100084859585FC01E05CFF4F40815181FC018C
:101A2000EE5BFF4F208131814217530781F0A08187
:101A3000B181A80FB91F8C91208131812F5F3F4F59
:101A40002F73332731832083282F30E002C02FEFFC
:101A50003FEFC9010895FC0186859785FC01E05C94
:101A6000FF4FDC01AE5BBF4F408151812D913C9116
:101A7000119742175307C1F70895CF93DF93FC01E5
:101A800086859785DC01A05CBF4F2D913C91119715
:101A90002F5F3F4F2F733327EC01CE5BDF4F488121
:101AA000598124173507D9F30D90BC91A02DA80FAB
:101AB000B91F6C93A685B785A05CBF4F11963C9368
:101AC0002E93A689B7892C9181E090E0058C02C005
:101AD000880F991F0A94E2F7282B2C9381E090E05D
:101AE000DF91CF91089508951F920F920FB60F9234
:101AF00011242F933F934F938F939F93EF93FF93D3
:101B00004091C600809104049091050401968F7362
:101B1000992720910604309107048217930759F002
:101B2000E0910404F0910504EC53FC4F4083909342
:101B3000050480930404FF91EF919F918F914F9141
:101B40003F912F910F900FBE0F901F90189581E637
:101B500093E00E94D80C892B11F00E94730D089518
:101B60001F920F920FB60F9211242F933F938F93D2
:101B70009F93EF93FF932091C0033091C103809115
:101B8000C2039091C3032817390731F48091C10033
:101B90008F7D8093C10014C0E091C203F091C30314
:101BA000E058FC4F20818091C2039091C3030196BD
:101BB0008F7399279093C3038093C2032093C60029
:101BC000FF91EF919F918F913F912F910F900FBEB9
:101BD0000F901F901895CF92DF92EF92FF92CF93C4
:101BE000DF93EC016A017B01411581EE5807610525
:101BF0007105F9F0EC89FD8981E090E00E8C02C05E
:101C0000880F991F0A94E2F7808360E079E08DE302
:101C100090E0A70196010E94131321503109410958
:101C200051095695479537952795211580E1380735
:101C300098F0EC89FD89108260E874E88EE190E00C
:101C4000A70196010E94131321503109410951093E
:101C50005695479537952795E889F9893083EA891C
:101C6000FB892083EE89FF89408181E090E09C011F
:101C70000A8C02C0220F331F0A94E2F7422B4083E2
:101C8000EE89FF8940819C010B8C02C0220F331F1B
:101C90000A94E2F7422B4083EE89FF8940819C0140
:101CA0000C8C02C0220F331F0A94E2F7422B4083B0
:101CB000EE89FF8920810D8C02C0880F991F0A943C
:101CC000E2F7809582238083DF91CF91FF90EF90A0
:101CD000DF90CF900895109264031092630388EE12
:101CE00093E0A0E0B0E08093650390936603A09337
:101CF0006703B09368038EE492E09093620380934D
:101D0000610384EC93E090936E0380936D0380E80D
:101D100093E09093700380936F0385EC90E0909331
:101D200072038093710384EC90E09093740380932A
:101D3000730380EC90E0909376038093750381ECBD
:101D400090E0909378038093770386EC90E09093F3
:101D50007A038093790384E080937B0383E080930C
:101D60007C0387E080937D0385E080937E0381E0A0
:101D700080937F0308951F920F920FB60F92112444
:101D80002F933F938F939F93AF93BF9380910804BA
:101D900090910904A0910A04B0910B0430911004B1
:101DA000232F2D5F2D3720F40196A11DB11D05C0F5
:101DB000232F2A570296A11DB11D20931004809352
:101DC000080490930904A0930A04B0930B04809133
:101DD0000C0490910D04A0910E04B0910F04019693
:101DE000A11DB11D80930C0490930D04A0930E04CB
:101DF000B0930F04BF91AF919F918F913F912F911D
:101E00000F900FBE0F901F9018950F931F938FB7D1
:101E1000F894009108041091090420910A0430916B
:101E20000B048FBFB801C9011F910F9108950F9343
:101E30001F939FB7F89400910C0410910D0420910A
:101E40000E0430910F0486B5A89B06C08F3F21F089
:101E50000F5F1F4F2F4F3F4F9FBF322F212F102F4C
:101E60000027080F111D211D311D42E0000F111F19
:101E7000221F331F4A95D1F7B801C9011F910F9155
:101E80000895CF92DF92EF92FF92CF93DF936B0191
:101E90007C010E94170FEB010EC00E94170F6C1BF4
:101EA0007D0B683E734038F081E0C81AD108E10824
:101EB000F108C851DC4FC114D104E104F10469F701
:101EC000DF91CF91FF90EF90DF90CF900895019731
:101ED00039F0880F991F880F991F02970197F1F722
:101EE0000895789484B5826084BD84B5816084BD92
:101EF00085B5826085BD85B5816085BDEEE6F0E083
:101F0000808181608083E1E8F0E0108280818260DE
:101F10008083808181608083E0E8F0E0808181605F
:101F20008083E1EBF0E0808184608083E0EBF0E08F
:101F3000808181608083EAE7F0E080818460808333
:101F400080818260808380818160808380818068DD
:101F500080831092C1000895833069F028F48130A5
:101F6000A1F0823011F514C08630B1F08730C1F095
:101F70008430D9F404C0809180008F7703C08091B1
:101F800080008F7D80938000089584B58F7702C094
:101F900084B58F7D84BD08958091B0008F7703C094
:101FA0008091B0008F7D8093B0000895CF93DF9330
:101FB00090E0FC01E755FF4F4491FC01E354FF4FD3
:101FC0008491882341F190E0880F991FFC01EB5127
:101FD000FF4F25913491D90185529F4FFC01859186
:101FE0009491C82FD92F9FB7F8948C91611106C096
:101FF000409584238C938881842308C0623041F407
:10200000242F209582238C938881842B888302C07F
:10201000842B8C939FBFDF91CF910895A1E0B0E016
:10202000E4E1F0E10C944313282F30E0F901EB5682
:10203000FF4F8491F901E755FF4F1491F901E354E3
:10204000FF4F04910023D1F0882321F069830E947F
:10205000AC0F6981E02FF0E0EE0FFF1FE552FF4F5C
:1020600085919491DC019FB7F8948C91611103C024
:102070001095812301C0812B8C939FBF2196E4E0B2
:102080000C945F13CF93DF93282F30E0F901EB56C8
:10209000FF4F8491F901E755FF4FD491F901E354C3
:1020A000FF4FC491CC2389F081110E94AC0FEC2F1B
:1020B000F0E0EE0FFF1FEF52FF4F85919491DC018E
:1020C0008C918D2321E030E011F420E030E0C90153
:1020D000DF91CF9108955058BB27AA270ED0FCC19D
:1020E000EDD130F0F2D120F031F49F3F11F41EF425
:1020F000BDC10EF4E095E7FBB3C1E92FFED180F33B
:10210000BA17620773078407950718F071F49EF5F4
:1021100016C20EF4E0950B2EBA2FA02D0B01B901BB
:1021200090010C01CA01A0011124FF27591B99F04D
:10213000593F50F4503E68F11A16F040A22F232F59
:10214000342F4427585FF3CF469537952795A795A9
:10215000F0405395C9F77EF41F16BA0B620B730B50
:10216000840BBAF09150A1F0FF0FBB1F661F771FC1
:10217000881FC2F70EC0BA0F621F731F841F48F476
:10218000879577956795B795F7959E3F08F0B3CFFC
:102190009395880F08F09927EE0F979587950895E6
:1021A0008DD158F080E891E009F49EEF8ED128F0AF
:1021B00040E851E059F45EEF09C058C1C0C1E92FB1
:1021C000E0789BD168F3092E052AC1F3261737075B
:1021D0004807590738F00E2E07F8E02569F0E0258A
:1021E000E0640AC0EF6307F8009407FADB01B90165
:1021F0009D01DC01CA01AD01EF9347D06DD10AD03A
:102200005F91552331F02BED3FE049E450FD49EC5F
:1022100063CF0895DF93DD27B92FBF7740E85FE3F1
:102220001616170648075B0710F4D92F8FD19F9316
:102230008F937F936F93F4D1E8E6F0E01AD14CD1FD
:102240002F913F914F915F9194D1DD2349F09058A8
:10225000A2EA2AED3FE049EC5FE3D0785D274DDF4D
:10226000DF913AC1D9D008F481E008950CD034C18F
:102270002CD140F023D130F021F45F3F19F0F0C0B1
:1022800051115EC1F3C039D198F39923C9F3552395
:10229000B1F3951B550BBB27AA2762177307840759
:1022A00038F09F5F5F4F220F331F441FAA1FA9F30F
:1022B00033D00E2E3AF0E0E830D091505040E69501
:1022C000001CCAF729D0FE2F27D0660F771F881F62
:1022D000BB1F261737074807AB07B0E809F0BB0B51
:1022E000802DBF01FF2793585F4F2AF09E3F510575
:1022F00068F0B6C025C15F3FECF3983EDCF38695ED
:1023000077956795B795F7959F5FC9F7880F911DEA
:102310009695879597F90895E1E0660F771F881FD6
:10232000BB1F621773078407BA0720F0621B730B89
:10233000840BBA0BEE1F88F7E095089504D06894DB
:10234000B111FEC00895E1D088F09F5790F0B92FE9
:102350009927B751A0F0D1F0660F771F881F991FFA
:102360001AF0BA95C9F712C0B13081F0E8D0B1E0E7
:102370000895E5C0672F782F8827B85F39F0B93FF7
:10238000CCF3869577956795B395D9F73EF49095FC
:102390008095709561957F4F8F4F9F4F0895E8947A
:1023A00009C097FB3EF490958095709561957F4F9D
:1023B0008F4F9F4F9923A9F0F92F96E9BB2793954B
:1023C000F695879577956795B795F111F8CFFAF45B
:1023D000BB0F11F460FF1BC06F5F7F4F8F4F9F4F8C
:1023E00016C0882311F096E911C0772321F09EE8EA
:1023F000872F762F05C0662371F096E8862F70E050
:1024000060E02AF09A95660F771F881FDAF7880F29
:102410009695879597F90895990F0008550FAA0B7F
:10242000E0E8FEEF16161706E807F907C0F01216E7
:102430001306E407F50798F0621B730B840B950BEA
:1024400039F40A2661F0232B242B252B21F408953F
:102450000A2609F4A140A6958FEF811D811D0895DC
:1024600097F99F6780E870E060E008959FEF80EC47
:102470000895DF93CF931F930F93FF92EF92DF9214
:102480007B018C01689405C0DA2EEF0172D0FE0149
:10249000E894A5912591359145915591AEF3EF01C1
:1024A0002CDEFE019701A801DA9479F7DF90EF9016
:1024B000FF900F911F91CF91DF91089500240A940E
:1024C0001616170618060906089500240A9412160F
:1024D0001306140605060895092E0394000C11F442
:1024E000882352F0BB0F40F4BF2B11F460FF04C0EF
:1024F0006F5F7F4F8F4F9F4F089557FD9058440F48
:10250000551F59F05F3F71F04795880F97FB991F52
:1025100061F09F3F79F0879508951216130614060F
:10252000551FF2CF4695F1DF08C01616170618069C
:10253000991FF1CF86957105610508940895E89477
:10254000BB2766277727CB0197F908959B01AC013C
:1025500060E070E080E89FE389CE0BD0BDCFAEDFB6
:1025600028F0B3DF18F0952309F07ACF7FCF11243C
:10257000E7CFC3DFA0F3959FD1F3950F50E0551F30
:10258000629FF001729FBB27F00DB11D639FAA27C8
:10259000F00DB11DAA1F649F6627B00DA11D661F17
:1025A000829F2227B00DA11D621F739FB00DA11D38
:1025B000621F839FA00D611D221F749F3327A00DF2
:1025C000611D231F849F600D211D822F762F6A2F8E
:1025D00011249F5750408AF0E1F088234AF0EE0F13
:1025E000FF1FBB1F661F771F881F91505040A9F720
:1025F0009E3F510570F034CFA3CF5F3FECF3983E80
:10260000DCF3869577956795B795F795E7959F5F86
:10261000C1F7FE2B880F911D9695879597F9089520
:102620009B01AC019ACFA1E21A2EAA1BBB1BFD0194
:102630000DC0AA1FBB1FEE1FFF1FA217B307E407A1
:10264000F50720F0A21BB30BE40BF50B661F771FF9
:10265000881F991F1A9469F76095709580959095D9
:102660009B01AC01BD01CF0108952F923F924F9283
:102670005F926F927F928F929F92AF92BF92CF9212
:10268000DF92EF92FF920F931F93CF93DF93CDB71B
:10269000DEB7CA1BDB0B0FB6F894DEBF0FBECDBF93
:1026A00009942A88398848885F846E847D848C8464
:1026B0009B84AA84B984C884DF80EE80FD800C816D
:1026C0001B81AA81B981CE0FD11D0FB6F894DEBF50
:1026D0000FBECDBFED010895EE0FFF1F0590F491E1
:0826E000E02D0994F894FFCFEE
:1026E8001801E803000040001400540048656C6CB1
:1026F8006F20576F726C640048656C6C6F20776F41
:10270800726C64004144584C33343520636F6E6EEC
:10271800656374696F6E207375636365737366753B
:102728006C004144584C33343520636F6E6E6563DA
:1027380074696F6E206661696C656400484D433545
:102748003838334C20636F6E6E656374696F6E2022
:102758007375636365737366756C00484D433538EC
:10276800383320636F6E6E656374696F6E206661BF
:10277800696C656400496E697469616C697A696E2F
:10278800672049324320646576696365732E2E2E6F
:102798000054657374696E672064657669636520A3
:1027A800636F6E6E656374696F6E732E2E2E0046AE
:1027B8006C61742073757266616365006661636934
:1027C8006E67204E6F7274680043616C6962726153
:1027D80074696F6E3A20666C6174207375726661F5
:1027E800636520706F696E74696E67204E6F7274CE
:1027F8006800413A09002C09004D3A090043616C10
:102808006962726174696F6E20636F6D706C657454
:102818006500000000002106F905CB05D405E80590
:10282800F80500000000EB07160B000000003D0D46
:0A283800160BD80C070DEB0C2B0D4E
:00000001FF
